:020000040800F2
:10800000B808002065810008D9860008D1860008DC
:10801000D5860008C9860008A18800080000000075
:108020000000000000000000000000002987000898
:10803000CD86000800000000258700088187000821
:108040007F8100087F8100087F8100087F81000810
:108050007F8100087F8100087F8100087F81000800
:108060007F8100087F8100087F8100087F810008F0
:108070007F8100087F8100087F8100087F810008E0
:108080007F8100087F8100087F8100087F810008D0
:108090007F8100087F8100087F8100087F810008C0
:1080A0007F8100087F8100087F8100087F810008B0
:1080B0007F8100087F8100087F8100087F810008A0
:1080C0007F8100087F8100087F8100087F81000890
:1080D0007F8100087F8100087F8100087F81000880
:1080E0007F8100087F8100087F8100087F81000870
:1080F0007F8100087F8100087F8100080000000068
:108100007F810008000000007F8100087F81000857
:108110007F8100087F8100087F8100087F8100083F
:108120007F8100087F8100087F8100087F8100082F
:108130007F81000800000000000000007F8100082F
:108140007F8100087F8100087F8100087F8100080F
:10815000DFF80CD000F018FA0048004791900008B2
:10816000B80800200648804706480047FEE7FEE7BB
:10817000FEE7FEE7FEE7FEE7FEE7FEE7FEE7FEE7D7
:108180008D8700085181000830B50B46014600205C
:108190002022012409E021FA02F59D4205D303FAC9
:1081A00002F5491B04FA02F52844151EA2F101024A
:1081B000F1DC30BD2DE9F05F0546002092469B467C
:1081C00088460646814640241BE0284641464746ED
:1081D000224600F0FAF953465A46C01A914110D38C
:1081E00011461846224600F0E1F92D1A67EB010806
:1081F0004F4622460120002100F0D8F917EB000974
:108200004E41201EA4F10104DFDC484631462A46D7
:108210004346BDE8F09F2DE9FE4F804681EA03000A
:10822000C00F0C46009021F0004123F00045B8EB50
:108230000200A94105D24046214690461C460B4605
:10824000024623F00040104347D0270DC7F30A0031
:10825000C3F30A510290401A019040286BDAC3F32D
:10826000130040F4801B0098924620B10023D2EB0B
:10827000030A63EB0B0B01985946C0F140025046CC
:1082800000F094F906460D4650465946019A00F012
:10829000ACF910EB08006141002487EA115284EA2E
:1082A000E7731A4340D0009A62B3019A012A4FEA59
:1082B000075215DC001B61EB02014FF0004202EA9D
:1082C0000752CDE90042001C41F5801132462B4691
:1082D00000F0ACF903B0BDE8F08F40462146F9E765
:1082E000001B61EB0201001C41F5801300185B418B
:1082F0002018A2F5001747EB030140EAD570B61924
:108300006D4111E06D084FEA360645EAC0754FEA47
:108310000752001B61EB0201001C41F58011490866
:108320004FEA30000019514132462B4603B0BDE8F8
:10833000F04F00F06CB90098012240000023D0EB10
:10834000020263EBE073009821464FEAE074B8EB59
:10835000000061EB0401E9E783F000435BE781F093
:10836000004158E72DE9FE4F81EA030404F0004480
:1083700021F0004100944FF0000B23F0004350EA3D
:1083800001045ED052EA03045BD0C3F30A54C1F384
:108390000A552C44A4F2F3340194A0FB0254C1F317
:1083A000130141F48011C3F3130343F4801301FB61
:1083B000024400FB034E840A970A44EA815447EAC8
:1083C0008357A4FB076802958D0A05FB07854FEAD2
:1083D000932C04FB0C542705029D4FEA065847EAEC
:1083E0001637B5EB08056EEB070C870E920E47EAC1
:1083F000811742EA8312A7FB0201B6EB0B0164EB83
:1084000000042B0D43EA0C335E1844EB1C50DA4693
:108410005146E7FB0201C5F313044FEA0B3343EA6D
:1084200014534FEA0432019C43EA0603A4F10C04FE
:108430000294009CCDE900B400F0F8F803B0BDE868
:10844000F08F00200146F9E72DE9F04D81EA0304A1
:1084500004F0004B21F0004514464FF0000A23F0D1
:10846000004150EA050220D054EA01021DD0C5F3B4
:108470000A570246C5F31303C1F31300C1F30A56AA
:1084800040F4801543F48013A7EB0608101BD64672
:1084900008F2FD3873EB050002D308F1010801E092
:1084A00092185B41B8F1000F03DA00200146BDE8E5
:1084B000F08D00204FF48011064684460EE0171B15
:1084C00073EB050705D3121B63EB050306434CEA68
:1084D000010C49084FEA300092185B4150EA01074D
:1084E000EDD152EA030012D082EA040083EA0501CA
:1084F000084305D0101BAB4106D20122002306E041
:1085000000224FF0004302E06FF0010253101AEB1B
:1085100006004CEB085110EB0A0041EB0B01BDE8E3
:10852000F04D00F074B8C1F30A52C1F3130140F2E8
:10853000FF3341F480119A4202DA0020014670476D
:1085400040F233439A42A2F2334202DC524200F03C
:108550003CB800F02BB8000030B5041E71F10004E7
:1085600004DB4FF00044404264EB0101141E73F140
:10857000000405DB1C464FF00043524263EB04034A
:10858000994208BF904230BD064C074D06E0E068B6
:1085900040F0010394E8070098471034AC42F6D34A
:1085A000FFF7DAFDCCA20008ECA20008202A04DBC9
:1085B000203A00FA02F1002070479140C2F12003F6
:1085C00020FA03F3194390407047202A04DB203A35
:1085D00021FA02F00021704721FA02F3D040C2F1E3
:1085E00020029140084319467047202A06DBCB172A
:1085F000203A41FA02F043EAE07306E041FA02F35E
:10860000D040C2F12002914008431946704710B58E
:10861000141E73F1000408DA401C41F100019218A5
:108620005B411A4301D120F0010010BD2DE9F04D4E
:1086300092469B4611B1B1FA81F202E0B0FA80F2A3
:1086400020329046FFF7B2FF04460F4640EA0A0088
:1086500041EA0B0153465A46084313D0114653EAE8
:10866000010019D0C8F140025046FFF7AEFF0546A1
:108670000E46504659464246FFF798FF084305D03C
:10868000012004E020463946BDE8F08D0020054376
:1086900046EAE0762C4337430A986305E40AA0EBE8
:1086A00008000022FD0A44EA47540A3002D500209F
:1086B0000146E9E7010510196941DDE9084500199E
:1086C0006941BDE8F04DA2E7FFE7FEE77047000013
:1086D000FFE7FEE7FFE7FEE7FFE7FEE782B00246BF
:1086E0008DF8070000919DF90700B0F1FF3F0CDC09
:1086F000FFE7009800019DF8071001F00F014EF60A
:108700001452CEF20002885409E0009800019DF94D
:1087100007104EF20042CEF200028854FFE702B08A
:1087200070470000704700007047000080B582B0BD
:10873000009000980138B0F1807F03D3FFE701205B
:10874000019019E0009801384EF21401CEF20001B8
:1087500008604FF0FF300F21FFF7C0FF4EF2180006
:10876000CEF20000002101604EF21000CEF20000B7
:10877000072202600191FFE7019802B080BD00006E
:1087800080B500F059FC00F0A1F880BD80B582B042
:108790004EF68850CEF20000016841F4700101608D
:1087A00041F20000C4F20200016841F001010160E1
:1087B000FFE741F20000C4F20200006880070028D1
:1087C00001D4FFE7F5E7FFE741F20400C4F202003D
:1087D000016841F08001016000200190FFE70198ED
:1087E0004F2805D8FFE7FFE7019801300190F6E731
:1087F00041F20400C4F20200016841F090010160FE
:1088000000200190FFE701984F2805D8FFE7FFE718
:10881000019801300190F6E741F20400C4F2020031
:10882000016841F0B001016000200190FFE701986C
:108830004F2805D8FFE7FFE7019801300190F6E7E0
:10884000FFE741F20400C4F20200016821F00301D5
:10885000016041F20001C4F202010A684FF6FF73A1
:10886000CEF6F6231A400A6041F20802C4F2020270
:108870004FF47F0313600022026041F22C00C4F227
:1088800002000260086820F480200860009200F076
:108890002DFF4FF00060009900F00CFD02B080BD8C
:1088A000FFE7FEE781B00090009840F2B001C2F20D
:1088B00000010860FFE740F2B000C2F2000000686B
:1088C000002801D0FFE7F6E701B0704740F2B000A2
:1088D000C2F200000068002808D0FFE740F2B000B4
:1088E000C2F20000016801390160FFE77047000033
:1088F00084B013468C4603908DF80B108DF80A2037
:10890000039840F20041C4F201010A6822EA000023
:108910000860039840F20441C4F201010A6822EAA7
:1089200000000860039840F20841C4F201010A689F
:1089300022EA00000860039840F20C41C4F20101F1
:108940000A6822EA000008609DF80B000146002832
:10895000019104D0FFE70198012809D011E00398A4
:1089600040F20041C4F201010A681043086009E0C6
:10897000039840F20441C4F201010A681043086000
:1089800000E0FFE79DF80A0001460028009108D0AA
:10899000FFE70098012816D0FFE70098022824D0AE
:1089A00034E0039840F20841C4F201010A68104320
:1089B0000860039840F20C41C4F201010A6822EAFF
:1089C0000000086023E0039840F20841C4F201016E
:1089D0000A6822EA00000860039840F20C41C4F2E1
:1089E00001010A681043086011E0039840F2084151
:1089F000C4F201010A6810430860039840F20C4178
:108A0000C4F201010A681043086000E0FFE704B007
:108A10007047000081B00090009840F21441C4F209
:108A20000101086001B0704780B582B001900091EB
:108A30009DF8041043F60000C4F2010000F0DEFED1
:108A4000FFE743F60000C4F20100072100F04AFFEF
:108A5000002801D1FFE7F4E7019802B080BD0000D3
:108A60004FF080707047000080B586B00590002000
:108A70000490059843F60001C4F20101884203D135
:108A8000FFE7002004900CE0059844F20041C4F296
:108A90000001884203D1FFE70120049000E051E08B
:108AA000FFE7049840F20801C2F2000131F810001B
:108AB00000F02AFD049840F20401C2F2000131F8EE
:108AC000100000F021FD049840F20C01C2F20001F8
:108AD00051F8202040F21C03C2F2000353F820306A
:108AE00018204FF0030C03901046039A0291114690
:108AF0006246CDF804C000F0BFF90498029951F81D
:108B0000202040F21403C2F2000353F82030042066
:108B1000009010460099019A00F0AEF9059800F017
:108B20007BFE05984FF4E13100F002FE05980099B4
:108B300000F0F8FE0598082100F006FF059800F007
:108B4000C7FEFFE706B080BD80B588B00A46034681
:108B50008DF81F008DF81E109DF81F0040F24C018B
:108B6000C2F2000131F810000692059300F0CCFC2F
:108B70004FF4C06000F0C8FC9DF81F0040F2900167
:108B8000C2F2000151F8201040F27402C2F2000259
:108B900052F820300420032204900846049900F083
:108BA0006BF99DF81E00012833D1FFE79DF81F00E7
:108BB00040F26C01C2F20001085C02210022039223
:108BC00000F0EAFA9DF81F0040F2A401C2F2000191
:108BD000095C40F28802C2F20002105C0290084672
:108BE000029900F0D3F89DF81F0040F25801C2F23C
:108BF000000151F820000122039B01911946FFF763
:108C000077FE9DF81F00019951F82000FFF702FF41
:108C1000FFE708B080BD000080B584B001468DF844
:108C20000F009DF80F0040F29002C2F2000252F8CD
:108C3000202040F27403C2F2000353F82000029097
:108C40001046029A0191114600F0E0F904B080BD8F
:108C500080B586B001468DF817009DF8170040F2E8
:108C60002402C2F2000232F81000049100F04CFC21
:108C70009DF8170040F23C01C2F2000151F820209B
:108C800040F22C03C2F2000353F820004FF0100C06
:108C90004FF0030E03901046029161467246DDF8D4
:108CA0000CC00193634600F0E7F89DF817000199A6
:108CB00051F82020029B53F82000426106B080BD8D
:108CC00081B001468DF803009DF8030040F22C02AC
:108CD000C2F2000252F8202040F23C03C2F200032C
:108CE00053F82000426101B07047000081B0014696
:108CF0008DF803009DF8030040F22C02C2F200023E
:108D000052F8202040F23C03C2F2000353F8200046
:108D1000026101B07047000080B584B001468DF853
:108D20000F009DF80F0040F23C02C2F2000252F820
:108D3000202040F22C03C2F2000353F820000290DE
:108D40001046029B01911946009200F05FF9C0F1B4
:108D50000100C2B20098029900F002F804B080BD90
:108D600083B01346029001918DF803209DF8030013
:108D7000002804D0FFE701980299086103E00198F8
:108D800002994861FFE703B07047000082B00A46CD
:108D900003468DF807008DF80610002000909DF81E
:108DA000060000F0030080000F2101FA00F000909F
:108DB0009DF80600032814DCFFE700980821C4F2A0
:108DC00001010A6822EA000008609DF807009DF88A
:108DD000062002F00302920090400A6810430860E7
:108DE00047E09DF80600072814DCFFE700980C21F7
:108DF000C4F201010A6822EA000008609DF8070039
:108E00009DF8062002F00302920090400A68104389
:108E100008602DE09DF806000B2814DCFFE70098A1
:108E20001021C4F201010A6822EA000008609DF8DE
:108E300007009DF8062002F00302920090400A68A5
:108E40001043086013E000981421C4F201010A687D
:108E500022EA000008609DF807009DF8062002F055
:108E60000302920090400A6810430860FFE7FFE7A2
:108E7000FFE702B07047000087B0069005910492AA
:108E80000393002001900090059800F00F000190DE
:108E90009DF81400C006002814D5FFE704980428A4
:108EA0000AD1FFE7019840F003000190039806996A
:108EB000CA6B1043C86304E0049801990843019009
:108EC000FFE7FFE70020ADF80A00FFE7BDF80A0062
:108ED000072846D8FFE7BDF80A00039921FA00F0F9
:108EE000C007002836D0FFE7069800680090BDF85C
:108EF0000A0080000F2101FA00F0009921EA000029
:108F000000900198BDF80A10890088400099084334
:108F10000090059828280AD1FFE7BDF80A00012132
:108F200001FA00F003990840069948610EE005989F
:108F300048280AD1FFE7BDF80A00012101FA00F034
:108F40000399084006990861FFE7FFE70098069932
:108F50000860FFE7FFE7BDF80A000130ADF80A003E
:108F6000B4E70820ADF80A00FFE7BDF80A000F28B3
:108F70004AD8FFE7BDF80A00039921FA00F0C007BC
:108F800000283AD0FFE7069840680090BDF80A0034
:108F90006FF01F0101EB80000F2202FA00F0009A2F
:108FA00022EA000000900198BDF80A2001EB82013E
:108FB0008840009908430090059828280AD1FFE7C7
:108FC000BDF80A00012101FA00F003990840069952
:108FD00048610EE0059848280AD1FFE7BDF80A006D
:108FE000012101FA00F00399084006990861FFE7A2
:108FF000FFE7009806994860FFE7FFE7BDF80A0021
:109000000130ADF80A00B0E707B0704783B00190B7
:109010000091019880680099084204D0FFE7012080
:109020008DF80B0003E000208DF80B00FFE79DF8A2
:109030000B0003B07047000080B540F2B400C2F2EC
:1090400000000068002819D0FFE740F2B400C2F227
:109050000000006880087C2804D8FFE70120FFF7A3
:1090600045FE03E00120FFF72BFEFFE740F2B400CE
:10907000C2F2000001680139016007E040F2B4006B
:10908000C2F200004FF47A710160FFE780BD00007A
:1090900080B590B000200F900E904FF000614FF41B
:1090A00000420D900846114600F004F900F022FB42
:1090B00001200C90FFF7CCFD02200B90FFF7C8FDBC
:1090C00003200A90FFF7C4FD43F60000C4F201003C
:1090D000FFF7CAFC04200D99FFF736FDFFF7C0FC2F
:1090E0000E900E98010EC0F30742C0F307234AF218
:1090F0009C20C0F6000000F039FC0D99099008464C
:1091000000F0ECF84AF28D21C0F600010890084604
:10911000089900F02BFC0C990790084600F0DEF847
:109120004AF27E21C0F6000106900846069900F03A
:109130001DFC0B990590084600F0D0F84AF25E211C
:10914000C0F6000104900846049900F00FFC0A994B
:109150000390084600F0C2F84AF26E21C0F6000102
:1091600002900846029900F001FCFFE70420FFF797
:1091700053FD00280FD1FFE702200190FFF7B6FD55
:109180004FF4FA70FFF78EFB0198FFF799FD03206B
:10919000FFF7C2FDFFE7E9E780B586B013468C46CE
:1091A00086468DF817008DF816108DF815200020D2
:1091B0000490039002904EF60C50CEF2000000682E
:1091C00000F4E0600146B0F5407F019127D0FFE751
:1091D0000198B0F5806F1DD0FFE70198B0F5A06F42
:1091E00014D0FFE70198B0F5C06F0AD0FFE70198EF
:1091F000B0F5E06F18D1FFE7002003900420029043
:109200001AE0012003900320029015E00220039051
:10921000029011E003200390012002900CE0042052
:1092200003900020029007E04FF4A06000F034F8B3
:10923000022003900290FFE79DF816000399C1F108
:109240000401884004909DF815000299C1F10401C1
:109250000F2222FA01F1084004990843049004986F
:109260000001049004989DF817104EF20042CEF2CF
:10927000000288549DF8170000F01F01012202FA35
:1092800001F14EF20012CEF2000242EAD00020F0CC
:109290000300016006B080BD81B0009000980021FD
:1092A000C0F2FA5108434EF60C51CEF200010860AC
:1092B00001B0704782B001900091019800994FF67B
:1092C0008072C1F6FF72114008434EF60851CEF28B
:1092D00000010860BFF34F8F02B070479BB001469A
:1092E0008DF86B000020189040F20672C0F608124C
:1092F000099240F20122C0F20342089207900690C0
:10930000059204900392029041F20400C4F202001C
:109310000068C0F38100199019980028019008D0C6
:10932000FFE7019801280AD0FFE7019802280CD036
:10933000A1E041F20020C0F27A001790A1E047F6C8
:109340004000C0F27D1017909BE041F20400C4F28F
:109350000200006800F4803013901398B0F5803F4D
:1093600054D1FFE741F22C00C4F20200006800F083
:10937000804012901298002806D1FFE747F640007F
:10938000C0F27D100F9005E046F60040C0F2DC20F0
:109390000F90FFE741F22C00C4F20200006800F4D5
:1093A000803011901198B0F5803F20D1FFE741F255
:1093B0002C00C4F202000168C9B2012202EB1111B3
:1093C0000B91006800F47060022101EB10200A90FC
:1093D0000A98112803D1FFE714200A90FFE70F989D
:1093E0000B99B0FBF1F00A9948430F90FFE741F267
:1093F0002C00C4F20200006800F00F0001300C9055
:109400000C980F99B1FBF0F00F9005E040F60010BA
:10941000C0F23D000F90FFE741F20400C4F20200E9
:109420000168C1F38341109100688000002805D5D0
:10943000FFE7109840F010001090FFE710980E28FA
:1094400004D8FFE710980230109003E01098013024
:109450001090FFE70F9810994843179010980F2825
:1094600008D1FFE70F9800EB4001490001EB5000E5
:109470001790FFE705E041F20020C0F27A00179054
:10948000FFE741F20400C4F202000168C9B2090911
:109490000E910E9906AA515C0D9117990D9AD14023
:1094A00016910168C1F302210E910E9904AA515C34
:1094B0000D9116990D9AD14015910068C0F3C22004
:1094C0000E900E9802A9085C0D9016980D99C84050
:1094D00014909DF86B0001460328009110D8009964
:1094E000DFE801F00205080B1798189009E01698BC
:1094F000189006E01598189003E01498189000E072
:10950000FFE718981BB0704781B00146ADF8020024
:10951000BDF8020000F01F02012303FA02F28009E5
:1095200041F20003C4F2020350F803C042EA0C0205
:10953000C25001B07047000081B00146ADF8020092
:10954000BDF8020000F01F02012303FA02F28009B5
:1095500041F20003C4F2020350F803C02CEA0202F5
:10956000C25001B07047000081B00146ADF8020062
:10957000BDF8020000F01F02012303FA02F2800985
:1095800041F20003C4F2020350F803C042EA0C02A5
:10959000C25001B07047000083B0002002900190DB
:1095A00041F20000C4F20200016841F48031016020
:1095B000FFE702980130029041F20000C4F202007D
:1095C000006800F400300190FFE7019800210028B6
:1095D000009108D1FFE702984FF6FF71401A18BFBB
:1095E00001200090FFE70098C0070028E1D1FFE7C5
:1095F00041F20000C4F2020000688003002802D497
:10960000FFE7FFE7FEE742F20000C4F20200016854
:10961000032262F30201016041F20400C4F202007D
:109620000168016001680160016841F480610160C6
:1096300001684FF6FF72CDF6C372114001600168F8
:109640000022C2F235021143016041F22C00C4F243
:10965000020001684FF20002CBF6FE721140016079
:10966000016840F24962C0F201021143016041F217
:109670000000C4F20200016841F080610160FFE770
:1096800041F20000C4F2020000680001002801D489
:10969000FFE7F5E741F20000C4F20200016841F083
:1096A00080710160FFE741F20000C4F2020000682F
:1096B0008001002801D4FFE7F5E741F20400C4F27D
:1096C0000200016821F003010160016841F002011C
:1096D0000160FFE741F20400C4F2020000680007E5
:1096E000002801D4FFE7F5E703B0704780B5FFF726
:1096F00053FF80BD80B582B040F2AC00C2F20000E2
:10970000006844F6D351C1F26201A0FB010189094E
:1097100001900846FFF70AF8002802D0FFE7FFE7AC
:10972000FEE74FF0FF300021FEF7D8FF02B080BD0A
:1097300080B588B0079006910020059004900390B2
:109740000290079844F20041C4F20001884201905F
:1097500025D0FFE744F60000C4F2000001998142E1
:1097600022D0FFE744F60040C4F200000199814294
:109770001FD0FFE745F20000C4F2000001998142CA
:109780001CD0FFE743F60000C4F2010001998142BA
:1097900019D1FFE70320FFF7A1FD059014E0022097
:1097A000FFF79CFD05900FE00220FFF797FD059065
:1097B0000AE00220FFF792FD059005E00220FFF786
:1097C0008DFD059000E0FFE70598069900EB51003C
:1097D000B0FBF1F0029002984FF6F071084004904F
:1097E000029800F00F000390BDF81000BDF80C10B7
:1097F00008430799886008B080BD000082B00A461F
:109800000190ADF80210BDF802006FF35F200199DE
:10981000486002B07047000080B588B00790079894
:1098200044F20041C4F200018842069029D0FFE7CB
:1098300044F60000C4F20000069981422AD0FFE7F6
:1098400044F60040C4F20000069981422BD0FFE7A5
:1098500045F20000C4F20000069981422CD0FFE7D7
:1098600043F60000C4F20100069981422DD1FFE7C2
:1098700040F20E300590FFF777FE0598FFF75CFE8B
:1098800024E040F211400490FFF76EFE0498FFF7C9
:1098900053FE1BE040F212400390FFF765FE039871
:1098A000FFF74AFE12E040F213400290FFF75CFE21
:1098B0000298FFF741FE09E040F214400190FFF7E3
:1098C00053FE0198FFF738FE00E0FFE708B080BDC7
:1098D00081B000900098C16841F40051C16001B0AE
:1098E0007047000083B00A460190ADF8021001985D
:1098F000BDF8021089094058BDF8021001F01F019F
:10990000C840C007002804D0FFE701208DF80B00F5
:1099100003E000208DF80B00FFE79DF80B0003B07B
:109920007047000082B0019000910198C16821F059
:109930000401C160009800F004000199CA68104356
:10994000C86002B07047000082B001900091019899
:10995000C16821F00801C160009800F00800019979
:10996000CA681043C86002B0704700000FB4054BCE
:1099700010B503A9044A029800F0DAF810BC5DF8AB
:1099800014FB0000298A00080000002002E008C83B
:10999000121F08C1002AFAD170477047002001E069
:1099A00001C1121F002AFBD1704700002DE9FF5FA3
:1099B00082B00021DDE90430020DDDF840B0034340
:1099C00018D044F61050A2F2FF32424315141198F9
:1099D00001281FD0A5EB0B00401C5FEA000A4FF0E6
:1099E00000064E4FDFF83891B046504615D5CAF103
:1099F000000413E0119801244AA3012801D16FEA61
:109A00000B010298119AC0E90031C0E9024206B088
:109A1000BDE8F09FCBF10000DFE704460021404A9B
:109A2000491842EB0450CDE9001012E0E00707D0DE
:109A300032463B4640464946FEF794FC80468946FE
:109A400032463B4610461946FEF78CFC06460F464A
:109A50006410002CEAD1DDE90401DDE90023BAF14C
:109A6000000F06DAFEF77EFC42464B46FEF77AFC14
:109A700005E0FEF7E9FC42464B46FEF7E5FC0446EE
:109A80000E460022284BFEF767FD03D84FF0FF304B
:109A9000014607E00022254B20463146FEF7BBFB7E
:109AA000FEF741FD102409E0002C0ADB0A22002306
:109AB000FEF780FB039B30321A55641E50EA010208
:109AC000F2D1641C039AC4F111031444119A012ABF
:109AD00003D0012208430DD10AE0084304D000203E
:109AE0004FF0110B119072E7A3EB0B056D1E0DE00B
:109AF0005B4504DD4FF0000205F1010504E003DAE7
:109B00004FF00002A5F10105002AECD0029811994E
:109B1000C0E90231C0E9004579E7000000001440C7
:109B20000000F03F300000000000F0430000E03F84
:109B30002DE9FF4F95B09B468946064600250FE26A
:109B4000252877D100242746F84A0121059400E012
:109B5000044316F8013F203B01FA03F01042F7D10D
:109B600030782A2811D06FF02F033078A0F130021E
:109B7000092A16D8059A44F0020402EB820203EB8C
:109B800042021044761C0590EFE759F8042B059229
:109B9000002A03DA504244F40054059044F00204D1
:109BA000761C30782E2816D116F8010F44F00404E4
:109BB0002A280DD06FF02F023078A0F13003092B46
:109BC00009D807EB870302EB4303C718761CF3E7BA
:109BD00059F8047B761C30786C280FD006DC4C28B2
:109BE00017D068280DD06A2814D104E0742810D04A
:109BF0007A280FD10DE044F400140AE044F48014F4
:109C000001E044F440147278824202D104F58014D9
:109C1000761C761C307866280BD013DC582877D059
:109C200009DC002875D04528F6D04628F4D047280E
:109C30001AD19DE118E0632835D0642879D06528D1
:109C400012D195E1702873D008DC6728F1D069281B
:109C50006FD06E280DD06F2806D1B5E073282CD0B8
:109C6000752875D0782874D05A46179990476D1C7E
:109C700075E1C4F30250022809D003280DD0D9F8A9
:109C8000001004280DD00D6009F1040967E1D9F82E
:109C90000010EA17C1E90052F6E7D9F800100D806C
:109CA000F2E70D70F0E719F8041B8DF800100020A2
:109CB0008DF80100EA46012003E059F804AB4FF0AB
:109CC000FF3061074FF0000102D40DE008F10101FF
:109CD0008846B9420FDA8045F8DB1AF808100029E7
:109CE000F4D108E008F1010188468142FADB1AF854
:109CF00008100029F6D105985B46A0EB080721461D
:109D00003846179A00F094FA284400EB080507E05B
:109D10004DE029E10DE01AF8010B5A4617999047DA
:109D2000B8F10108F7D25B4621463846179A13E18D
:109D300042E00A220092C4F302524FF0000A022AC3
:109D400008D059F804CB032A4FEAEC710AD00DE091
:109D500029E02AE009F1070121F00702F2E802C137
:109D6000914609E00FFA8CFC4FEAEC71042A03D10A
:109D70004FFA8CFC4FEAEC71002907DA0A46002101
:109D8000DCF1000C61EB02012D2202E0220504D57A
:109D90002B228DF80420012203E0E20701D02022CB
:109DA000F7E7904659E00A2102E010220DE0102169
:109DB0004FF0000A00910BE010224FF0000A44F02F
:109DC00004040827009203E008224FF0000A0092E2
:109DD000C4F30252022A05D059F804CB0021032A09
:109DE00008D009E009F1070121F00702F2E802C1F9
:109DF000914605E01FFA8CFC042A01D10CF0FF0CFF
:109E00004FF00008220728D5702806D0009B83F069
:109E1000100353EA0A0305D00EE040228DF8042017
:109E2000012208E05CEA010206D030228DF804200D
:109E30008DF8050002229046009B83F0080353EA48
:109E40000A030AD15CEA010201D1620705D530227A
:109E50008DF804204FF001087F1E582804D034A04C
:109E600003900EA802900DE036A0F9E75346604635
:109E7000009AFEF79FF984460398825C0298401E80
:109E8000029002705CEA0100F0D1029806A9081A5B
:109E900000F1200A600702D524F4803400E0012795
:109EA000574502DDA7EB0A0000E0002000EB0A01A5
:109EB000009005984144401A0590E00306D45B46A3
:109EC0002146179A059800F0B3F90544002706E0EB
:109ED00001A85A46C05D179990476D1C7F1C4745E5
:109EE000F6DBE0030CD55B462146179A059800F097
:109EF0009FF9054404E030205A46179990476D1C9D
:109F00000099481E00900029F5DC08E002980299AB
:109F10005A460078491C0291179990476D1CBAF176
:109F20000001AAF1010AF1DC65E100000928010045
:109F300030313233343536373839616263646566BF
:109F40000000000030313233343536373839414281
:109F5000434445460000000000F058F90544761CD3
:109F6000307800287FF4ECAD19B02846BDE8F08FBA
:109F7000620700D4062709F1070222F0070CFCE86B
:109F80000223E14603F000485FEA080C02D00FF21A
:109F9000702C0DE05FEA045C02D50FF2682C07E03C
:109FA0005FEAC47C02D00FF2602C01E0AFF2700CCB
:109FB0004FF0FF3823F00043CDF850C065280CD097
:109FC00006DC452809D046281DD047283DD13DE074
:109FD000662818D067287ED138E00021112F01DBD8
:109FE000112000E0781CCDE9000106A90EA8FFF7BA
:109FF000DDFCDDE90F010E9A03910021009207F1CB
:10A00000010A04914DE04FF000400097CDE90110A6
:10A0100006A90EA8FFF7CAFCDDE90F0203920E9B0A
:10A0200011990022DDF80CA00093049211B9791C5B
:10A0300000EB010AB7EB0A0004D4C0F1FF3007F1CE
:10A04000010A0490AAEB0700019044E0012F00DA16
:10A0500001270021112F01DD112000E03846CDE954
:10A06000000106A90EA8FFF7A1FCDDE90F010E9A79
:10A070000391002104910092BA4621070CD4039960
:10A08000514500DA8A46BAF1010F05DD009AAAF1BE
:10A090000101515C302908D0B84202DA10F1040FF6
:10A0A00006DA0121CDE9011015E0AAF10101E9E785
:10A0B000002805DC049901440491AAEB000102E0A8
:10A0C000411C514500DD8A460499401A401C01900C
:10A0D0004FF000400290200704D40198504501DB66
:10A0E000CDF8048000208DF84F0002980DF14F0745
:10A0F000B0F1004F25D02B200E9002984FF00208AF
:10A1000000280CDA404202902D200E9007E00A2130
:10A110000298FEF739F83031029007F8011DB8F1C6
:10A120000001A8F10108F2DC02980028EFD1791EA5
:10A130000E980870307800F0200040F0450007F8D5
:10A14000020D12A8C01B00F107081498007800B196
:10A15000012000EB0A01019801EBE07105984144F0
:10A16000401A401E0590E00306D45B462146179A2C
:10A17000059800F05DF805441498007818B15A4627
:10A18000179990476D1CE00324D55B462146179A2A
:10A19000059800F04DF805441CE00498002807DB02
:10A1A000DDE90301884203DD0098405C179901E076
:10A1B000179930205A469047049805F10105401C34
:10A1C00004900198401E019004D12E205A46179900
:10A1D00090476D1CBAF10001AAF1010ADDDC05E02F
:10A1E00017F8010B5A46179990476D1CB8F10001FA
:10A1F000A8F10108F4DC5B462146179A0598ABE606
:10A200002D0000002B000000200000002DE9F0418F
:10A21000044600251E461746880404D405E0394646
:10A220002020B0476D1C641EF9D52846BDE8F0819A
:10A230002DE9F041044600251E469046C80301D58D
:10A24000302700E02027880404D505E04146384641
:10A25000B0476D1C641EF9D52846BDE8F0810D0A93
:10A26000434B5F41504231206973202564000D0A41
:10A27000434B5F41504232206973202564000D0A30
:10A28000434B5F414842206973202564000D0A4317
:10A290004B5F535953206973202564000D0A4744CE
:10A2A0003332413130782073657269657320666995
:10A2B000726D776172652076657273696F6E3A2090
:10A2C0005625642E25642E2564000000F0A20008A7
:10A2D00000000020B00000008C990008A0A3000836
:10A2E000B0000020080800009C9900080000000051
:10A2F000000000000E0611070206020600080140D9
:10A3000000080140000400000800000000020000F6
:10A31000040000000406040606060606010000000C
:10A3200004000000010000000200000000100140D5
:10A330000010014000180140001801400206040608
:10A3400003060406040600000100000000200000CF
:10A350000040000020000000100000000628281720
:10A360000A00000001000000002000000040000082
:10A370002000000010000000000D0E050400000089
:10A380000008014000100140000C01400010014095
:10A39000001001400002010202000000000E270729
:04000005080081511D
:00000001FF
